{
	"data": {
		"bytecode": {
			"linkReferences": {},
			"object": "608060405260405180608001604052806040518060400160405280601781526020017f7478313a2073616e6172626f79202d3e206a6f7264616e00000000000000000081525081526020016040518060400160405280601381526020017f7478323a206a6f7264616e202d3e206b6972610000000000000000000000000081525081526020016040518060400160405280601081526020017f7478333a206b697261202d3e2073616d0000000000000000000000000000000081525081526020016040518060400160405280601081526020017f7478343a2073616d202d3e20657273680000000000000000000000000000000081525081525060019060046200010b9291906200037d565b5034801562000118575f80fd5b505f5b60048110156200020e575f620001dd6001836004811062000141576200014062000457565b5b0180546200014f90620004b1565b80601f01602080910402602001604051908101604052809291908181526020018280546200017d90620004b1565b8015620001cc5780601f10620001a257610100808354040283529160200191620001cc565b820191905f5260205f20905b815481529060010190602001808311620001ae57829003601f168201915b50505050506200033260201b60201c565b908060018154018082558091505060019003905f5260205f20015f909190919091505580806001019150506200011b565b505f600490505f5b5f8211156200032a575f5b6001836200023091906200051b565b81101562000302575f80828462000248919062000555565b815481106200025c576200025b62000457565b5b905f5260205f2001545f6001848662000276919062000555565b62000282919062000555565b8154811062000296576200029562000457565b5b905f5260205f200154604051602001620002b2929190620005bc565b60405160208183030381529060405280519060200120908060018154018082558091505060019003905f5260205f20015f9091909190915055600281620002fa919062000555565b905062000221565b50818162000311919062000555565b905060028262000322919062000618565b915062000216565b5050620009af565b5f62000344826200035260201b60201c565b805190602001209050919050565b606081604051602001620003679190620006c3565b6040516020818303038152906040529050919050565b8260048101928215620003bd579160200282015b82811115620003bc578251829081620003ab9190620008cb565b509160200191906001019062000391565b5b509050620003cc9190620003d0565b5090565b5b80821115620003f3575f8181620003e99190620003f7565b50600101620003d1565b5090565b5080546200040590620004b1565b5f825580601f1062000418575062000437565b601f0160209004905f5260205f20908101906200043691906200043a565b5b50565b5b8082111562000453575f815f9055506001016200043b565b5090565b7f4e487b71000000000000000000000000000000000000000000000000000000005f52603260045260245ffd5b7f4e487b71000000000000000000000000000000000000000000000000000000005f52602260045260245ffd5b5f6002820490506001821680620004c957607f821691505b602082108103620004df57620004de62000484565b5b50919050565b5f819050919050565b7f4e487b71000000000000000000000000000000000000000000000000000000005f52601160045260245ffd5b5f6200052782620004e5565b91506200053483620004e5565b92508282039050818111156200054f576200054e620004ee565b5b92915050565b5f6200056182620004e5565b91506200056e83620004e5565b9250828201905080821115620005895762000588620004ee565b5b92915050565b5f819050919050565b5f819050919050565b620005b6620005b0826200058f565b62000598565b82525050565b5f620005c98285620005a1565b602082019150620005db8284620005a1565b6020820191508190509392505050565b7f4e487b71000000000000000000000000000000000000000000000000000000005f52601260045260245ffd5b5f6200062482620004e5565b91506200063183620004e5565b925082620006445762000643620005eb565b5b828204905092915050565b5f81519050919050565b5f81905092915050565b5f5b838110156200068257808201518184015260208101905062000665565b5f8484015250505050565b5f62000699826200064f565b620006a5818562000659565b9350620006b781856020860162000663565b80840191505092915050565b5f620006d082846200068d565b915081905092915050565b7f4e487b71000000000000000000000000000000000000000000000000000000005f52604160045260245ffd5b5f819050815f5260205f209050919050565b5f6020601f8301049050919050565b5f82821b905092915050565b5f60088302620007667fffffffffffffffffffffffffffffffffffffffffffffffffffffffffffffffff8262000729565b62000772868362000729565b95508019841693508086168417925050509392505050565b5f819050919050565b5f620007b3620007ad620007a784620004e5565b6200078a565b620004e5565b9050919050565b5f819050919050565b620007ce8362000793565b620007e6620007dd82620007ba565b84845462000735565b825550505050565b5f90565b620007fc620007ee565b62000809818484620007c3565b505050565b5b818110156200083057620008245f82620007f2565b6001810190506200080f565b5050565b601f8211156200087f57620008498162000708565b62000854846200071a565b8101602085101562000864578190505b6200087c62000873856200071a565b8301826200080e565b50505b505050565b5f82821c905092915050565b5f620008a15f198460080262000884565b1980831691505092915050565b5f620008bb838362000890565b9150826002028217905092915050565b620008d6826200064f565b67ffffffffffffffff811115620008f257620008f1620006db565b5b620008fe8254620004b1565b6200090b82828562000834565b5f60209050601f83116001811462000941575f84156200092c578287015190505b620009388582620008ae565b865550620009a7565b601f198416620009518662000708565b5f5b828110156200097a5784890151825560018201915060208501945060208101905062000953565b868310156200099a578489015162000996601f89168262000890565b8355505b6001600288020188555050505b505050505050565b61084e80620009bd5f395ff3fe608060405234801561000f575f80fd5b506004361061004a575f3560e01c80632637cccf1461004e578063501895ae1461007e57806352de70af146100ae5780636a11b2a8146100de575b5f80fd5b610068600480360381019061006391906104b6565b61010e565b604051610075919061056c565b60405180910390f35b61009860048036038101906100939190610585565b6101df565b6040516100a591906105bf565b60405180910390f35b6100c860048036038101906100c391906105d8565b6101fe565b6040516100d591906105bf565b60405180910390f35b6100f860048036038101906100f391906105d8565b610216565b6040516101059190610699565b60405180910390f35b5f80610119866101fe565b90505f5b83518110156101d0575f84828151811061013a576101396106b9565b5b602002602001015190505f6002886101529190610713565b0361018757828160405160200161016a929190610763565b6040516020818303038152906040528051906020012092506101b3565b808360405160200161019a929190610763565b6040516020818303038152906040528051906020012092505b6002876101c0919061078e565b965050808060010191505061011d565b50838114915050949350505050565b5f81815481106101ed575f80fd5b905f5260205f20015f915090505481565b5f61020882610216565b805190602001209050919050565b6060816040516020016102299190610802565b6040516020818303038152906040529050919050565b5f604051905090565b5f80fd5b5f80fd5b5f80fd5b5f80fd5b5f601f19601f8301169050919050565b7f4e487b71000000000000000000000000000000000000000000000000000000005f52604160045260245ffd5b61029e82610258565b810181811067ffffffffffffffff821117156102bd576102bc610268565b5b80604052505050565b5f6102cf61023f565b90506102db8282610295565b919050565b5f67ffffffffffffffff8211156102fa576102f9610268565b5b61030382610258565b9050602081019050919050565b828183375f83830152505050565b5f61033061032b846102e0565b6102c6565b90508281526020810184848401111561034c5761034b610254565b5b610357848285610310565b509392505050565b5f82601f83011261037357610372610250565b5b813561038384826020860161031e565b91505092915050565b5f819050919050565b61039e8161038c565b81146103a8575f80fd5b50565b5f813590506103b981610395565b92915050565b5f819050919050565b6103d1816103bf565b81146103db575f80fd5b50565b5f813590506103ec816103c8565b92915050565b5f67ffffffffffffffff82111561040c5761040b610268565b5b602082029050602081019050919050565b5f80fd5b5f61043361042e846103f2565b6102c6565b905080838252602082019050602084028301858111156104565761045561041d565b5b835b8181101561047f578061046b88826103de565b845260208401935050602081019050610458565b5050509392505050565b5f82601f83011261049d5761049c610250565b5b81356104ad848260208601610421565b91505092915050565b5f805f80608085870312156104ce576104cd610248565b5b5f85013567ffffffffffffffff8111156104eb576104ea61024c565b5b6104f78782880161035f565b9450506020610508878288016103ab565b9350506040610519878288016103de565b925050606085013567ffffffffffffffff81111561053a5761053961024c565b5b61054687828801610489565b91505092959194509250565b5f8115159050919050565b61056681610552565b82525050565b5f60208201905061057f5f83018461055d565b92915050565b5f6020828403121561059a57610599610248565b5b5f6105a7848285016103ab565b91505092915050565b6105b9816103bf565b82525050565b5f6020820190506105d25f8301846105b0565b92915050565b5f602082840312156105ed576105ec610248565b5b5f82013567ffffffffffffffff81111561060a5761060961024c565b5b6106168482850161035f565b91505092915050565b5f81519050919050565b5f82825260208201905092915050565b5f5b8381101561065657808201518184015260208101905061063b565b5f8484015250505050565b5f61066b8261061f565b6106758185610629565b9350610685818560208601610639565b61068e81610258565b840191505092915050565b5f6020820190508181035f8301526106b18184610661565b905092915050565b7f4e487b71000000000000000000000000000000000000000000000000000000005f52603260045260245ffd5b7f4e487b71000000000000000000000000000000000000000000000000000000005f52601260045260245ffd5b5f61071d8261038c565b91506107288361038c565b925082610738576107376106e6565b5b828206905092915050565b5f819050919050565b61075d610758826103bf565b610743565b82525050565b5f61076e828561074c565b60208201915061077e828461074c565b6020820191508190509392505050565b5f6107988261038c565b91506107a38361038c565b9250826107b3576107b26106e6565b5b828204905092915050565b5f81519050919050565b5f81905092915050565b5f6107dc826107be565b6107e681856107c8565b93506107f6818560208601610639565b80840191505092915050565b5f61080d82846107d2565b91508190509291505056fea2646970667358221220a2f81ee207230942972fe2e3b39af0b81e2285804ddd25e810d34e053f1b1b8f64736f6c63430008160033",
			"opcodes": "PUSH1 0x80 PUSH1 0x40 MSTORE PUSH1 0x40 MLOAD DUP1 PUSH1 0x80 ADD PUSH1 0x40 MSTORE DUP1 PUSH1 0x40 MLOAD DUP1 PUSH1 0x40 ADD PUSH1 0x40 MSTORE DUP1 PUSH1 0x17 DUP2 MSTORE PUSH1 0x20 ADD PUSH32 0x7478313A2073616E6172626F79202D3E206A6F7264616E000000000000000000 DUP2 MSTORE POP DUP2 MSTORE PUSH1 0x20 ADD PUSH1 0x40 MLOAD DUP1 PUSH1 0x40 ADD PUSH1 0x40 MSTORE DUP1 PUSH1 0x13 DUP2 MSTORE PUSH1 0x20 ADD PUSH32 0x7478323A206A6F7264616E202D3E206B69726100000000000000000000000000 DUP2 MSTORE POP DUP2 MSTORE PUSH1 0x20 ADD PUSH1 0x40 MLOAD DUP1 PUSH1 0x40 ADD PUSH1 0x40 MSTORE DUP1 PUSH1 0x10 DUP2 MSTORE PUSH1 0x20 ADD PUSH32 0x7478333A206B697261202D3E2073616D00000000000000000000000000000000 DUP2 MSTORE POP DUP2 MSTORE PUSH1 0x20 ADD PUSH1 0x40 MLOAD DUP1 PUSH1 0x40 ADD PUSH1 0x40 MSTORE DUP1 PUSH1 0x10 DUP2 MSTORE PUSH1 0x20 ADD PUSH32 0x7478343A2073616D202D3E206572736800000000000000000000000000000000 DUP2 MSTORE POP DUP2 MSTORE POP PUSH1 0x1 SWAP1 PUSH1 0x4 PUSH3 0x10B SWAP3 SWAP2 SWAP1 PUSH3 0x37D JUMP JUMPDEST POP CALLVALUE DUP1 ISZERO PUSH3 0x118 JUMPI PUSH0 DUP1 REVERT JUMPDEST POP PUSH0 JUMPDEST PUSH1 0x4 DUP2 LT ISZERO PUSH3 0x20E JUMPI PUSH0 PUSH3 0x1DD PUSH1 0x1 DUP4 PUSH1 0x4 DUP2 LT PUSH3 0x141 JUMPI PUSH3 0x140 PUSH3 0x457 JUMP JUMPDEST JUMPDEST ADD DUP1 SLOAD PUSH3 0x14F SWAP1 PUSH3 0x4B1 JUMP JUMPDEST DUP1 PUSH1 0x1F ADD PUSH1 0x20 DUP1 SWAP2 DIV MUL PUSH1 0x20 ADD PUSH1 0x40 MLOAD SWAP1 DUP2 ADD PUSH1 0x40 MSTORE DUP1 SWAP3 SWAP2 SWAP1 DUP2 DUP2 MSTORE PUSH1 0x20 ADD DUP3 DUP1 SLOAD PUSH3 0x17D SWAP1 PUSH3 0x4B1 JUMP JUMPDEST DUP1 ISZERO PUSH3 0x1CC JUMPI DUP1 PUSH1 0x1F LT PUSH3 0x1A2 JUMPI PUSH2 0x100 DUP1 DUP4 SLOAD DIV MUL DUP4 MSTORE SWAP2 PUSH1 0x20 ADD SWAP2 PUSH3 0x1CC JUMP JUMPDEST DUP3 ADD SWAP2 SWAP1 PUSH0 MSTORE PUSH1 0x20 PUSH0 KECCAK256 SWAP1 JUMPDEST DUP2 SLOAD DUP2 MSTORE SWAP1 PUSH1 0x1 ADD SWAP1 PUSH1 0x20 ADD DUP1 DUP4 GT PUSH3 0x1AE JUMPI DUP3 SWAP1 SUB PUSH1 0x1F AND DUP3 ADD SWAP2 JUMPDEST POP POP POP POP POP PUSH3 0x332 PUSH1 0x20 SHL PUSH1 0x20 SHR JUMP JUMPDEST SWAP1 DUP1 PUSH1 0x1 DUP2 SLOAD ADD DUP1 DUP3 SSTORE DUP1 SWAP2 POP POP PUSH1 0x1 SWAP1 SUB SWAP1 PUSH0 MSTORE PUSH1 0x20 PUSH0 KECCAK256 ADD PUSH0 SWAP1 SWAP2 SWAP1 SWAP2 SWAP1 SWAP2 POP SSTORE DUP1 DUP1 PUSH1 0x1 ADD SWAP2 POP POP PUSH3 0x11B JUMP JUMPDEST POP PUSH0 PUSH1 0x4 SWAP1 POP PUSH0 JUMPDEST PUSH0 DUP3 GT ISZERO PUSH3 0x32A JUMPI PUSH0 JUMPDEST PUSH1 0x1 DUP4 PUSH3 0x230 SWAP2 SWAP1 PUSH3 0x51B JUMP JUMPDEST DUP2 LT ISZERO PUSH3 0x302 JUMPI PUSH0 DUP1 DUP3 DUP5 PUSH3 0x248 SWAP2 SWAP1 PUSH3 0x555 JUMP JUMPDEST DUP2 SLOAD DUP2 LT PUSH3 0x25C JUMPI PUSH3 0x25B PUSH3 0x457 JUMP JUMPDEST JUMPDEST SWAP1 PUSH0 MSTORE PUSH1 0x20 PUSH0 KECCAK256 ADD SLOAD PUSH0 PUSH1 0x1 DUP5 DUP7 PUSH3 0x276 SWAP2 SWAP1 PUSH3 0x555 JUMP JUMPDEST PUSH3 0x282 SWAP2 SWAP1 PUSH3 0x555 JUMP JUMPDEST DUP2 SLOAD DUP2 LT PUSH3 0x296 JUMPI PUSH3 0x295 PUSH3 0x457 JUMP JUMPDEST JUMPDEST SWAP1 PUSH0 MSTORE PUSH1 0x20 PUSH0 KECCAK256 ADD SLOAD PUSH1 0x40 MLOAD PUSH1 0x20 ADD PUSH3 0x2B2 SWAP3 SWAP2 SWAP1 PUSH3 0x5BC JUMP JUMPDEST PUSH1 0x40 MLOAD PUSH1 0x20 DUP2 DUP4 SUB SUB DUP2 MSTORE SWAP1 PUSH1 0x40 MSTORE DUP1 MLOAD SWAP1 PUSH1 0x20 ADD KECCAK256 SWAP1 DUP1 PUSH1 0x1 DUP2 SLOAD ADD DUP1 DUP3 SSTORE DUP1 SWAP2 POP POP PUSH1 0x1 SWAP1 SUB SWAP1 PUSH0 MSTORE PUSH1 0x20 PUSH0 KECCAK256 ADD PUSH0 SWAP1 SWAP2 SWAP1 SWAP2 SWAP1 SWAP2 POP SSTORE PUSH1 0x2 DUP2 PUSH3 0x2FA SWAP2 SWAP1 PUSH3 0x555 JUMP JUMPDEST SWAP1 POP PUSH3 0x221 JUMP JUMPDEST POP DUP2 DUP2 PUSH3 0x311 SWAP2 SWAP1 PUSH3 0x555 JUMP JUMPDEST SWAP1 POP PUSH1 0x2 DUP3 PUSH3 0x322 SWAP2 SWAP1 PUSH3 0x618 JUMP JUMPDEST SWAP2 POP PUSH3 0x216 JUMP JUMPDEST POP POP PUSH3 0x9AF JUMP JUMPDEST PUSH0 PUSH3 0x344 DUP3 PUSH3 0x352 PUSH1 0x20 SHL PUSH1 0x20 SHR JUMP JUMPDEST DUP1 MLOAD SWAP1 PUSH1 0x20 ADD KECCAK256 SWAP1 POP SWAP2 SWAP1 POP JUMP JUMPDEST PUSH1 0x60 DUP2 PUSH1 0x40 MLOAD PUSH1 0x20 ADD PUSH3 0x367 SWAP2 SWAP1 PUSH3 0x6C3 JUMP JUMPDEST PUSH1 0x40 MLOAD PUSH1 0x20 DUP2 DUP4 SUB SUB DUP2 MSTORE SWAP1 PUSH1 0x40 MSTORE SWAP1 POP SWAP2 SWAP1 POP JUMP JUMPDEST DUP3 PUSH1 0x4 DUP2 ADD SWAP3 DUP3 ISZERO PUSH3 0x3BD JUMPI SWAP2 PUSH1 0x20 MUL DUP3 ADD JUMPDEST DUP3 DUP2 GT ISZERO PUSH3 0x3BC JUMPI DUP3 MLOAD DUP3 SWAP1 DUP2 PUSH3 0x3AB SWAP2 SWAP1 PUSH3 0x8CB JUMP JUMPDEST POP SWAP2 PUSH1 0x20 ADD SWAP2 SWAP1 PUSH1 0x1 ADD SWAP1 PUSH3 0x391 JUMP JUMPDEST JUMPDEST POP SWAP1 POP PUSH3 0x3CC SWAP2 SWAP1 PUSH3 0x3D0 JUMP JUMPDEST POP SWAP1 JUMP JUMPDEST JUMPDEST DUP1 DUP3 GT ISZERO PUSH3 0x3F3 JUMPI PUSH0 DUP2 DUP2 PUSH3 0x3E9 SWAP2 SWAP1 PUSH3 0x3F7 JUMP JUMPDEST POP PUSH1 0x1 ADD PUSH3 0x3D1 JUMP JUMPDEST POP SWAP1 JUMP JUMPDEST POP DUP1 SLOAD PUSH3 0x405 SWAP1 PUSH3 0x4B1 JUMP JUMPDEST PUSH0 DUP3 SSTORE DUP1 PUSH1 0x1F LT PUSH3 0x418 JUMPI POP PUSH3 0x437 JUMP JUMPDEST PUSH1 0x1F ADD PUSH1 0x20 SWAP1 DIV SWAP1 PUSH0 MSTORE PUSH1 0x20 PUSH0 KECCAK256 SWAP1 DUP2 ADD SWAP1 PUSH3 0x436 SWAP2 SWAP1 PUSH3 0x43A JUMP JUMPDEST JUMPDEST POP JUMP JUMPDEST JUMPDEST DUP1 DUP3 GT ISZERO PUSH3 0x453 JUMPI PUSH0 DUP2 PUSH0 SWAP1 SSTORE POP PUSH1 0x1 ADD PUSH3 0x43B JUMP JUMPDEST POP SWAP1 JUMP JUMPDEST PUSH32 0x4E487B7100000000000000000000000000000000000000000000000000000000 PUSH0 MSTORE PUSH1 0x32 PUSH1 0x4 MSTORE PUSH1 0x24 PUSH0 REVERT JUMPDEST PUSH32 0x4E487B7100000000000000000000000000000000000000000000000000000000 PUSH0 MSTORE PUSH1 0x22 PUSH1 0x4 MSTORE PUSH1 0x24 PUSH0 REVERT JUMPDEST PUSH0 PUSH1 0x2 DUP3 DIV SWAP1 POP PUSH1 0x1 DUP3 AND DUP1 PUSH3 0x4C9 JUMPI PUSH1 0x7F DUP3 AND SWAP2 POP JUMPDEST PUSH1 0x20 DUP3 LT DUP2 SUB PUSH3 0x4DF JUMPI PUSH3 0x4DE PUSH3 0x484 JUMP JUMPDEST JUMPDEST POP SWAP2 SWAP1 POP JUMP JUMPDEST PUSH0 DUP2 SWAP1 POP SWAP2 SWAP1 POP JUMP JUMPDEST PUSH32 0x4E487B7100000000000000000000000000000000000000000000000000000000 PUSH0 MSTORE PUSH1 0x11 PUSH1 0x4 MSTORE PUSH1 0x24 PUSH0 REVERT JUMPDEST PUSH0 PUSH3 0x527 DUP3 PUSH3 0x4E5 JUMP JUMPDEST SWAP2 POP PUSH3 0x534 DUP4 PUSH3 0x4E5 JUMP JUMPDEST SWAP3 POP DUP3 DUP3 SUB SWAP1 POP DUP2 DUP2 GT ISZERO PUSH3 0x54F JUMPI PUSH3 0x54E PUSH3 0x4EE JUMP JUMPDEST JUMPDEST SWAP3 SWAP2 POP POP JUMP JUMPDEST PUSH0 PUSH3 0x561 DUP3 PUSH3 0x4E5 JUMP JUMPDEST SWAP2 POP PUSH3 0x56E DUP4 PUSH3 0x4E5 JUMP JUMPDEST SWAP3 POP DUP3 DUP3 ADD SWAP1 POP DUP1 DUP3 GT ISZERO PUSH3 0x589 JUMPI PUSH3 0x588 PUSH3 0x4EE JUMP JUMPDEST JUMPDEST SWAP3 SWAP2 POP POP JUMP JUMPDEST PUSH0 DUP2 SWAP1 POP SWAP2 SWAP1 POP JUMP JUMPDEST PUSH0 DUP2 SWAP1 POP SWAP2 SWAP1 POP JUMP JUMPDEST PUSH3 0x5B6 PUSH3 0x5B0 DUP3 PUSH3 0x58F JUMP JUMPDEST PUSH3 0x598 JUMP JUMPDEST DUP3 MSTORE POP POP JUMP JUMPDEST PUSH0 PUSH3 0x5C9 DUP3 DUP6 PUSH3 0x5A1 JUMP JUMPDEST PUSH1 0x20 DUP3 ADD SWAP2 POP PUSH3 0x5DB DUP3 DUP5 PUSH3 0x5A1 JUMP JUMPDEST PUSH1 0x20 DUP3 ADD SWAP2 POP DUP2 SWAP1 POP SWAP4 SWAP3 POP POP POP JUMP JUMPDEST PUSH32 0x4E487B7100000000000000000000000000000000000000000000000000000000 PUSH0 MSTORE PUSH1 0x12 PUSH1 0x4 MSTORE PUSH1 0x24 PUSH0 REVERT JUMPDEST PUSH0 PUSH3 0x624 DUP3 PUSH3 0x4E5 JUMP JUMPDEST SWAP2 POP PUSH3 0x631 DUP4 PUSH3 0x4E5 JUMP JUMPDEST SWAP3 POP DUP3 PUSH3 0x644 JUMPI PUSH3 0x643 PUSH3 0x5EB JUMP JUMPDEST JUMPDEST DUP3 DUP3 DIV SWAP1 POP SWAP3 SWAP2 POP POP JUMP JUMPDEST PUSH0 DUP2 MLOAD SWAP1 POP SWAP2 SWAP1 POP JUMP JUMPDEST PUSH0 DUP2 SWAP1 POP SWAP3 SWAP2 POP POP JUMP JUMPDEST PUSH0 JUMPDEST DUP4 DUP2 LT ISZERO PUSH3 0x682 JUMPI DUP1 DUP3 ADD MLOAD DUP2 DUP5 ADD MSTORE PUSH1 0x20 DUP2 ADD SWAP1 POP PUSH3 0x665 JUMP JUMPDEST PUSH0 DUP5 DUP5 ADD MSTORE POP POP POP POP JUMP JUMPDEST PUSH0 PUSH3 0x699 DUP3 PUSH3 0x64F JUMP JUMPDEST PUSH3 0x6A5 DUP2 DUP6 PUSH3 0x659 JUMP JUMPDEST SWAP4 POP PUSH3 0x6B7 DUP2 DUP6 PUSH1 0x20 DUP7 ADD PUSH3 0x663 JUMP JUMPDEST DUP1 DUP5 ADD SWAP2 POP POP SWAP3 SWAP2 POP POP JUMP JUMPDEST PUSH0 PUSH3 0x6D0 DUP3 DUP5 PUSH3 0x68D JUMP JUMPDEST SWAP2 POP DUP2 SWAP1 POP SWAP3 SWAP2 POP POP JUMP JUMPDEST PUSH32 0x4E487B7100000000000000000000000000000000000000000000000000000000 PUSH0 MSTORE PUSH1 0x41 PUSH1 0x4 MSTORE PUSH1 0x24 PUSH0 REVERT JUMPDEST PUSH0 DUP2 SWAP1 POP DUP2 PUSH0 MSTORE PUSH1 0x20 PUSH0 KECCAK256 SWAP1 POP SWAP2 SWAP1 POP JUMP JUMPDEST PUSH0 PUSH1 0x20 PUSH1 0x1F DUP4 ADD DIV SWAP1 POP SWAP2 SWAP1 POP JUMP JUMPDEST PUSH0 DUP3 DUP3 SHL SWAP1 POP SWAP3 SWAP2 POP POP JUMP JUMPDEST PUSH0 PUSH1 0x8 DUP4 MUL PUSH3 0x766 PUSH32 0xFFFFFFFFFFFFFFFFFFFFFFFFFFFFFFFFFFFFFFFFFFFFFFFFFFFFFFFFFFFFFFFF DUP3 PUSH3 0x729 JUMP JUMPDEST PUSH3 0x772 DUP7 DUP4 PUSH3 0x729 JUMP JUMPDEST SWAP6 POP DUP1 NOT DUP5 AND SWAP4 POP DUP1 DUP7 AND DUP5 OR SWAP3 POP POP POP SWAP4 SWAP3 POP POP POP JUMP JUMPDEST PUSH0 DUP2 SWAP1 POP SWAP2 SWAP1 POP JUMP JUMPDEST PUSH0 PUSH3 0x7B3 PUSH3 0x7AD PUSH3 0x7A7 DUP5 PUSH3 0x4E5 JUMP JUMPDEST PUSH3 0x78A JUMP JUMPDEST PUSH3 0x4E5 JUMP JUMPDEST SWAP1 POP SWAP2 SWAP1 POP JUMP JUMPDEST PUSH0 DUP2 SWAP1 POP SWAP2 SWAP1 POP JUMP JUMPDEST PUSH3 0x7CE DUP4 PUSH3 0x793 JUMP JUMPDEST PUSH3 0x7E6 PUSH3 0x7DD DUP3 PUSH3 0x7BA JUMP JUMPDEST DUP5 DUP5 SLOAD PUSH3 0x735 JUMP JUMPDEST DUP3 SSTORE POP POP POP POP JUMP JUMPDEST PUSH0 SWAP1 JUMP JUMPDEST PUSH3 0x7FC PUSH3 0x7EE JUMP JUMPDEST PUSH3 0x809 DUP2 DUP5 DUP5 PUSH3 0x7C3 JUMP JUMPDEST POP POP POP JUMP JUMPDEST JUMPDEST DUP2 DUP2 LT ISZERO PUSH3 0x830 JUMPI PUSH3 0x824 PUSH0 DUP3 PUSH3 0x7F2 JUMP JUMPDEST PUSH1 0x1 DUP2 ADD SWAP1 POP PUSH3 0x80F JUMP JUMPDEST POP POP JUMP JUMPDEST PUSH1 0x1F DUP3 GT ISZERO PUSH3 0x87F JUMPI PUSH3 0x849 DUP2 PUSH3 0x708 JUMP JUMPDEST PUSH3 0x854 DUP5 PUSH3 0x71A JUMP JUMPDEST DUP2 ADD PUSH1 0x20 DUP6 LT ISZERO PUSH3 0x864 JUMPI DUP2 SWAP1 POP JUMPDEST PUSH3 0x87C PUSH3 0x873 DUP6 PUSH3 0x71A JUMP JUMPDEST DUP4 ADD DUP3 PUSH3 0x80E JUMP JUMPDEST POP POP JUMPDEST POP POP POP JUMP JUMPDEST PUSH0 DUP3 DUP3 SHR SWAP1 POP SWAP3 SWAP2 POP POP JUMP JUMPDEST PUSH0 PUSH3 0x8A1 PUSH0 NOT DUP5 PUSH1 0x8 MUL PUSH3 0x884 JUMP JUMPDEST NOT DUP1 DUP4 AND SWAP2 POP POP SWAP3 SWAP2 POP POP JUMP JUMPDEST PUSH0 PUSH3 0x8BB DUP4 DUP4 PUSH3 0x890 JUMP JUMPDEST SWAP2 POP DUP3 PUSH1 0x2 MUL DUP3 OR SWAP1 POP SWAP3 SWAP2 POP POP JUMP JUMPDEST PUSH3 0x8D6 DUP3 PUSH3 0x64F JUMP JUMPDEST PUSH8 0xFFFFFFFFFFFFFFFF DUP2 GT ISZERO PUSH3 0x8F2 JUMPI PUSH3 0x8F1 PUSH3 0x6DB JUMP JUMPDEST JUMPDEST PUSH3 0x8FE DUP3 SLOAD PUSH3 0x4B1 JUMP JUMPDEST PUSH3 0x90B DUP3 DUP3 DUP6 PUSH3 0x834 JUMP JUMPDEST PUSH0 PUSH1 0x20 SWAP1 POP PUSH1 0x1F DUP4 GT PUSH1 0x1 DUP2 EQ PUSH3 0x941 JUMPI PUSH0 DUP5 ISZERO PUSH3 0x92C JUMPI DUP3 DUP8 ADD MLOAD SWAP1 POP JUMPDEST PUSH3 0x938 DUP6 DUP3 PUSH3 0x8AE JUMP JUMPDEST DUP7 SSTORE POP PUSH3 0x9A7 JUMP JUMPDEST PUSH1 0x1F NOT DUP5 AND PUSH3 0x951 DUP7 PUSH3 0x708 JUMP JUMPDEST PUSH0 JUMPDEST DUP3 DUP2 LT ISZERO PUSH3 0x97A JUMPI DUP5 DUP10 ADD MLOAD DUP3 SSTORE PUSH1 0x1 DUP3 ADD SWAP2 POP PUSH1 0x20 DUP6 ADD SWAP5 POP PUSH1 0x20 DUP2 ADD SWAP1 POP PUSH3 0x953 JUMP JUMPDEST DUP7 DUP4 LT ISZERO PUSH3 0x99A JUMPI DUP5 DUP10 ADD MLOAD PUSH3 0x996 PUSH1 0x1F DUP10 AND DUP3 PUSH3 0x890 JUMP JUMPDEST DUP4 SSTORE POP JUMPDEST PUSH1 0x1 PUSH1 0x2 DUP9 MUL ADD DUP9 SSTORE POP POP POP JUMPDEST POP POP POP POP POP POP JUMP JUMPDEST PUSH2 0x84E DUP1 PUSH3 0x9BD PUSH0 CODECOPY PUSH0 RETURN INVALID PUSH1 0x80 PUSH1 0x40 MSTORE CALLVALUE DUP1 ISZERO PUSH2 0xF JUMPI PUSH0 DUP1 REVERT JUMPDEST POP PUSH1 0x4 CALLDATASIZE LT PUSH2 0x4A JUMPI PUSH0 CALLDATALOAD PUSH1 0xE0 SHR DUP1 PUSH4 0x2637CCCF EQ PUSH2 0x4E JUMPI DUP1 PUSH4 0x501895AE EQ PUSH2 0x7E JUMPI DUP1 PUSH4 0x52DE70AF EQ PUSH2 0xAE JUMPI DUP1 PUSH4 0x6A11B2A8 EQ PUSH2 0xDE JUMPI JUMPDEST PUSH0 DUP1 REVERT JUMPDEST PUSH2 0x68 PUSH1 0x4 DUP1 CALLDATASIZE SUB DUP2 ADD SWAP1 PUSH2 0x63 SWAP2 SWAP1 PUSH2 0x4B6 JUMP JUMPDEST PUSH2 0x10E JUMP JUMPDEST PUSH1 0x40 MLOAD PUSH2 0x75 SWAP2 SWAP1 PUSH2 0x56C JUMP JUMPDEST PUSH1 0x40 MLOAD DUP1 SWAP2 SUB SWAP1 RETURN JUMPDEST PUSH2 0x98 PUSH1 0x4 DUP1 CALLDATASIZE SUB DUP2 ADD SWAP1 PUSH2 0x93 SWAP2 SWAP1 PUSH2 0x585 JUMP JUMPDEST PUSH2 0x1DF JUMP JUMPDEST PUSH1 0x40 MLOAD PUSH2 0xA5 SWAP2 SWAP1 PUSH2 0x5BF JUMP JUMPDEST PUSH1 0x40 MLOAD DUP1 SWAP2 SUB SWAP1 RETURN JUMPDEST PUSH2 0xC8 PUSH1 0x4 DUP1 CALLDATASIZE SUB DUP2 ADD SWAP1 PUSH2 0xC3 SWAP2 SWAP1 PUSH2 0x5D8 JUMP JUMPDEST PUSH2 0x1FE JUMP JUMPDEST PUSH1 0x40 MLOAD PUSH2 0xD5 SWAP2 SWAP1 PUSH2 0x5BF JUMP JUMPDEST PUSH1 0x40 MLOAD DUP1 SWAP2 SUB SWAP1 RETURN JUMPDEST PUSH2 0xF8 PUSH1 0x4 DUP1 CALLDATASIZE SUB DUP2 ADD SWAP1 PUSH2 0xF3 SWAP2 SWAP1 PUSH2 0x5D8 JUMP JUMPDEST PUSH2 0x216 JUMP JUMPDEST PUSH1 0x40 MLOAD PUSH2 0x105 SWAP2 SWAP1 PUSH2 0x699 JUMP JUMPDEST PUSH1 0x40 MLOAD DUP1 SWAP2 SUB SWAP1 RETURN JUMPDEST PUSH0 DUP1 PUSH2 0x119 DUP7 PUSH2 0x1FE JUMP JUMPDEST SWAP1 POP PUSH0 JUMPDEST DUP4 MLOAD DUP2 LT ISZERO PUSH2 0x1D0 JUMPI PUSH0 DUP5 DUP3 DUP2 MLOAD DUP2 LT PUSH2 0x13A JUMPI PUSH2 0x139 PUSH2 0x6B9 JUMP JUMPDEST JUMPDEST PUSH1 0x20 MUL PUSH1 0x20 ADD ADD MLOAD SWAP1 POP PUSH0 PUSH1 0x2 DUP9 PUSH2 0x152 SWAP2 SWAP1 PUSH2 0x713 JUMP JUMPDEST SUB PUSH2 0x187 JUMPI DUP3 DUP2 PUSH1 0x40 MLOAD PUSH1 0x20 ADD PUSH2 0x16A SWAP3 SWAP2 SWAP1 PUSH2 0x763 JUMP JUMPDEST PUSH1 0x40 MLOAD PUSH1 0x20 DUP2 DUP4 SUB SUB DUP2 MSTORE SWAP1 PUSH1 0x40 MSTORE DUP1 MLOAD SWAP1 PUSH1 0x20 ADD KECCAK256 SWAP3 POP PUSH2 0x1B3 JUMP JUMPDEST DUP1 DUP4 PUSH1 0x40 MLOAD PUSH1 0x20 ADD PUSH2 0x19A SWAP3 SWAP2 SWAP1 PUSH2 0x763 JUMP JUMPDEST PUSH1 0x40 MLOAD PUSH1 0x20 DUP2 DUP4 SUB SUB DUP2 MSTORE SWAP1 PUSH1 0x40 MSTORE DUP1 MLOAD SWAP1 PUSH1 0x20 ADD KECCAK256 SWAP3 POP JUMPDEST PUSH1 0x2 DUP8 PUSH2 0x1C0 SWAP2 SWAP1 PUSH2 0x78E JUMP JUMPDEST SWAP7 POP POP DUP1 DUP1 PUSH1 0x1 ADD SWAP2 POP POP PUSH2 0x11D JUMP JUMPDEST POP DUP4 DUP2 EQ SWAP2 POP POP SWAP5 SWAP4 POP POP POP POP JUMP JUMPDEST PUSH0 DUP2 DUP2 SLOAD DUP2 LT PUSH2 0x1ED JUMPI PUSH0 DUP1 REVERT JUMPDEST SWAP1 PUSH0 MSTORE PUSH1 0x20 PUSH0 KECCAK256 ADD PUSH0 SWAP2 POP SWAP1 POP SLOAD DUP2 JUMP JUMPDEST PUSH0 PUSH2 0x208 DUP3 PUSH2 0x216 JUMP JUMPDEST DUP1 MLOAD SWAP1 PUSH1 0x20 ADD KECCAK256 SWAP1 POP SWAP2 SWAP1 POP JUMP JUMPDEST PUSH1 0x60 DUP2 PUSH1 0x40 MLOAD PUSH1 0x20 ADD PUSH2 0x229 SWAP2 SWAP1 PUSH2 0x802 JUMP JUMPDEST PUSH1 0x40 MLOAD PUSH1 0x20 DUP2 DUP4 SUB SUB DUP2 MSTORE SWAP1 PUSH1 0x40 MSTORE SWAP1 POP SWAP2 SWAP1 POP JUMP JUMPDEST PUSH0 PUSH1 0x40 MLOAD SWAP1 POP SWAP1 JUMP JUMPDEST PUSH0 DUP1 REVERT JUMPDEST PUSH0 DUP1 REVERT JUMPDEST PUSH0 DUP1 REVERT JUMPDEST PUSH0 DUP1 REVERT JUMPDEST PUSH0 PUSH1 0x1F NOT PUSH1 0x1F DUP4 ADD AND SWAP1 POP SWAP2 SWAP1 POP JUMP JUMPDEST PUSH32 0x4E487B7100000000000000000000000000000000000000000000000000000000 PUSH0 MSTORE PUSH1 0x41 PUSH1 0x4 MSTORE PUSH1 0x24 PUSH0 REVERT JUMPDEST PUSH2 0x29E DUP3 PUSH2 0x258 JUMP JUMPDEST DUP2 ADD DUP2 DUP2 LT PUSH8 0xFFFFFFFFFFFFFFFF DUP3 GT OR ISZERO PUSH2 0x2BD JUMPI PUSH2 0x2BC PUSH2 0x268 JUMP JUMPDEST JUMPDEST DUP1 PUSH1 0x40 MSTORE POP POP POP JUMP JUMPDEST PUSH0 PUSH2 0x2CF PUSH2 0x23F JUMP JUMPDEST SWAP1 POP PUSH2 0x2DB DUP3 DUP3 PUSH2 0x295 JUMP JUMPDEST SWAP2 SWAP1 POP JUMP JUMPDEST PUSH0 PUSH8 0xFFFFFFFFFFFFFFFF DUP3 GT ISZERO PUSH2 0x2FA JUMPI PUSH2 0x2F9 PUSH2 0x268 JUMP JUMPDEST JUMPDEST PUSH2 0x303 DUP3 PUSH2 0x258 JUMP JUMPDEST SWAP1 POP PUSH1 0x20 DUP2 ADD SWAP1 POP SWAP2 SWAP1 POP JUMP JUMPDEST DUP3 DUP2 DUP4 CALLDATACOPY PUSH0 DUP4 DUP4 ADD MSTORE POP POP POP JUMP JUMPDEST PUSH0 PUSH2 0x330 PUSH2 0x32B DUP5 PUSH2 0x2E0 JUMP JUMPDEST PUSH2 0x2C6 JUMP JUMPDEST SWAP1 POP DUP3 DUP2 MSTORE PUSH1 0x20 DUP2 ADD DUP5 DUP5 DUP5 ADD GT ISZERO PUSH2 0x34C JUMPI PUSH2 0x34B PUSH2 0x254 JUMP JUMPDEST JUMPDEST PUSH2 0x357 DUP5 DUP3 DUP6 PUSH2 0x310 JUMP JUMPDEST POP SWAP4 SWAP3 POP POP POP JUMP JUMPDEST PUSH0 DUP3 PUSH1 0x1F DUP4 ADD SLT PUSH2 0x373 JUMPI PUSH2 0x372 PUSH2 0x250 JUMP JUMPDEST JUMPDEST DUP2 CALLDATALOAD PUSH2 0x383 DUP5 DUP3 PUSH1 0x20 DUP7 ADD PUSH2 0x31E JUMP JUMPDEST SWAP2 POP POP SWAP3 SWAP2 POP POP JUMP JUMPDEST PUSH0 DUP2 SWAP1 POP SWAP2 SWAP1 POP JUMP JUMPDEST PUSH2 0x39E DUP2 PUSH2 0x38C JUMP JUMPDEST DUP2 EQ PUSH2 0x3A8 JUMPI PUSH0 DUP1 REVERT JUMPDEST POP JUMP JUMPDEST PUSH0 DUP2 CALLDATALOAD SWAP1 POP PUSH2 0x3B9 DUP2 PUSH2 0x395 JUMP JUMPDEST SWAP3 SWAP2 POP POP JUMP JUMPDEST PUSH0 DUP2 SWAP1 POP SWAP2 SWAP1 POP JUMP JUMPDEST PUSH2 0x3D1 DUP2 PUSH2 0x3BF JUMP JUMPDEST DUP2 EQ PUSH2 0x3DB JUMPI PUSH0 DUP1 REVERT JUMPDEST POP JUMP JUMPDEST PUSH0 DUP2 CALLDATALOAD SWAP1 POP PUSH2 0x3EC DUP2 PUSH2 0x3C8 JUMP JUMPDEST SWAP3 SWAP2 POP POP JUMP JUMPDEST PUSH0 PUSH8 0xFFFFFFFFFFFFFFFF DUP3 GT ISZERO PUSH2 0x40C JUMPI PUSH2 0x40B PUSH2 0x268 JUMP JUMPDEST JUMPDEST PUSH1 0x20 DUP3 MUL SWAP1 POP PUSH1 0x20 DUP2 ADD SWAP1 POP SWAP2 SWAP1 POP JUMP JUMPDEST PUSH0 DUP1 REVERT JUMPDEST PUSH0 PUSH2 0x433 PUSH2 0x42E DUP5 PUSH2 0x3F2 JUMP JUMPDEST PUSH2 0x2C6 JUMP JUMPDEST SWAP1 POP DUP1 DUP4 DUP3 MSTORE PUSH1 0x20 DUP3 ADD SWAP1 POP PUSH1 0x20 DUP5 MUL DUP4 ADD DUP6 DUP2 GT ISZERO PUSH2 0x456 JUMPI PUSH2 0x455 PUSH2 0x41D JUMP JUMPDEST JUMPDEST DUP4 JUMPDEST DUP2 DUP2 LT ISZERO PUSH2 0x47F JUMPI DUP1 PUSH2 0x46B DUP9 DUP3 PUSH2 0x3DE JUMP JUMPDEST DUP5 MSTORE PUSH1 0x20 DUP5 ADD SWAP4 POP POP PUSH1 0x20 DUP2 ADD SWAP1 POP PUSH2 0x458 JUMP JUMPDEST POP POP POP SWAP4 SWAP3 POP POP POP JUMP JUMPDEST PUSH0 DUP3 PUSH1 0x1F DUP4 ADD SLT PUSH2 0x49D JUMPI PUSH2 0x49C PUSH2 0x250 JUMP JUMPDEST JUMPDEST DUP2 CALLDATALOAD PUSH2 0x4AD DUP5 DUP3 PUSH1 0x20 DUP7 ADD PUSH2 0x421 JUMP JUMPDEST SWAP2 POP POP SWAP3 SWAP2 POP POP JUMP JUMPDEST PUSH0 DUP1 PUSH0 DUP1 PUSH1 0x80 DUP6 DUP8 SUB SLT ISZERO PUSH2 0x4CE JUMPI PUSH2 0x4CD PUSH2 0x248 JUMP JUMPDEST JUMPDEST PUSH0 DUP6 ADD CALLDATALOAD PUSH8 0xFFFFFFFFFFFFFFFF DUP2 GT ISZERO PUSH2 0x4EB JUMPI PUSH2 0x4EA PUSH2 0x24C JUMP JUMPDEST JUMPDEST PUSH2 0x4F7 DUP8 DUP3 DUP9 ADD PUSH2 0x35F JUMP JUMPDEST SWAP5 POP POP PUSH1 0x20 PUSH2 0x508 DUP8 DUP3 DUP9 ADD PUSH2 0x3AB JUMP JUMPDEST SWAP4 POP POP PUSH1 0x40 PUSH2 0x519 DUP8 DUP3 DUP9 ADD PUSH2 0x3DE JUMP JUMPDEST SWAP3 POP POP PUSH1 0x60 DUP6 ADD CALLDATALOAD PUSH8 0xFFFFFFFFFFFFFFFF DUP2 GT ISZERO PUSH2 0x53A JUMPI PUSH2 0x539 PUSH2 0x24C JUMP JUMPDEST JUMPDEST PUSH2 0x546 DUP8 DUP3 DUP9 ADD PUSH2 0x489 JUMP JUMPDEST SWAP2 POP POP SWAP3 SWAP6 SWAP2 SWAP5 POP SWAP3 POP JUMP JUMPDEST PUSH0 DUP2 ISZERO ISZERO SWAP1 POP SWAP2 SWAP1 POP JUMP JUMPDEST PUSH2 0x566 DUP2 PUSH2 0x552 JUMP JUMPDEST DUP3 MSTORE POP POP JUMP JUMPDEST PUSH0 PUSH1 0x20 DUP3 ADD SWAP1 POP PUSH2 0x57F PUSH0 DUP4 ADD DUP5 PUSH2 0x55D JUMP JUMPDEST SWAP3 SWAP2 POP POP JUMP JUMPDEST PUSH0 PUSH1 0x20 DUP3 DUP5 SUB SLT ISZERO PUSH2 0x59A JUMPI PUSH2 0x599 PUSH2 0x248 JUMP JUMPDEST JUMPDEST PUSH0 PUSH2 0x5A7 DUP5 DUP3 DUP6 ADD PUSH2 0x3AB JUMP JUMPDEST SWAP2 POP POP SWAP3 SWAP2 POP POP JUMP JUMPDEST PUSH2 0x5B9 DUP2 PUSH2 0x3BF JUMP JUMPDEST DUP3 MSTORE POP POP JUMP JUMPDEST PUSH0 PUSH1 0x20 DUP3 ADD SWAP1 POP PUSH2 0x5D2 PUSH0 DUP4 ADD DUP5 PUSH2 0x5B0 JUMP JUMPDEST SWAP3 SWAP2 POP POP JUMP JUMPDEST PUSH0 PUSH1 0x20 DUP3 DUP5 SUB SLT ISZERO PUSH2 0x5ED JUMPI PUSH2 0x5EC PUSH2 0x248 JUMP JUMPDEST JUMPDEST PUSH0 DUP3 ADD CALLDATALOAD PUSH8 0xFFFFFFFFFFFFFFFF DUP2 GT ISZERO PUSH2 0x60A JUMPI PUSH2 0x609 PUSH2 0x24C JUMP JUMPDEST JUMPDEST PUSH2 0x616 DUP5 DUP3 DUP6 ADD PUSH2 0x35F JUMP JUMPDEST SWAP2 POP POP SWAP3 SWAP2 POP POP JUMP JUMPDEST PUSH0 DUP2 MLOAD SWAP1 POP SWAP2 SWAP1 POP JUMP JUMPDEST PUSH0 DUP3 DUP3 MSTORE PUSH1 0x20 DUP3 ADD SWAP1 POP SWAP3 SWAP2 POP POP JUMP JUMPDEST PUSH0 JUMPDEST DUP4 DUP2 LT ISZERO PUSH2 0x656 JUMPI DUP1 DUP3 ADD MLOAD DUP2 DUP5 ADD MSTORE PUSH1 0x20 DUP2 ADD SWAP1 POP PUSH2 0x63B JUMP JUMPDEST PUSH0 DUP5 DUP5 ADD MSTORE POP POP POP POP JUMP JUMPDEST PUSH0 PUSH2 0x66B DUP3 PUSH2 0x61F JUMP JUMPDEST PUSH2 0x675 DUP2 DUP6 PUSH2 0x629 JUMP JUMPDEST SWAP4 POP PUSH2 0x685 DUP2 DUP6 PUSH1 0x20 DUP7 ADD PUSH2 0x639 JUMP JUMPDEST PUSH2 0x68E DUP2 PUSH2 0x258 JUMP JUMPDEST DUP5 ADD SWAP2 POP POP SWAP3 SWAP2 POP POP JUMP JUMPDEST PUSH0 PUSH1 0x20 DUP3 ADD SWAP1 POP DUP2 DUP2 SUB PUSH0 DUP4 ADD MSTORE PUSH2 0x6B1 DUP2 DUP5 PUSH2 0x661 JUMP JUMPDEST SWAP1 POP SWAP3 SWAP2 POP POP JUMP JUMPDEST PUSH32 0x4E487B7100000000000000000000000000000000000000000000000000000000 PUSH0 MSTORE PUSH1 0x32 PUSH1 0x4 MSTORE PUSH1 0x24 PUSH0 REVERT JUMPDEST PUSH32 0x4E487B7100000000000000000000000000000000000000000000000000000000 PUSH0 MSTORE PUSH1 0x12 PUSH1 0x4 MSTORE PUSH1 0x24 PUSH0 REVERT JUMPDEST PUSH0 PUSH2 0x71D DUP3 PUSH2 0x38C JUMP JUMPDEST SWAP2 POP PUSH2 0x728 DUP4 PUSH2 0x38C JUMP JUMPDEST SWAP3 POP DUP3 PUSH2 0x738 JUMPI PUSH2 0x737 PUSH2 0x6E6 JUMP JUMPDEST JUMPDEST DUP3 DUP3 MOD SWAP1 POP SWAP3 SWAP2 POP POP JUMP JUMPDEST PUSH0 DUP2 SWAP1 POP SWAP2 SWAP1 POP JUMP JUMPDEST PUSH2 0x75D PUSH2 0x758 DUP3 PUSH2 0x3BF JUMP JUMPDEST PUSH2 0x743 JUMP JUMPDEST DUP3 MSTORE POP POP JUMP JUMPDEST PUSH0 PUSH2 0x76E DUP3 DUP6 PUSH2 0x74C JUMP JUMPDEST PUSH1 0x20 DUP3 ADD SWAP2 POP PUSH2 0x77E DUP3 DUP5 PUSH2 0x74C JUMP JUMPDEST PUSH1 0x20 DUP3 ADD SWAP2 POP DUP2 SWAP1 POP SWAP4 SWAP3 POP POP POP JUMP JUMPDEST PUSH0 PUSH2 0x798 DUP3 PUSH2 0x38C JUMP JUMPDEST SWAP2 POP PUSH2 0x7A3 DUP4 PUSH2 0x38C JUMP JUMPDEST SWAP3 POP DUP3 PUSH2 0x7B3 JUMPI PUSH2 0x7B2 PUSH2 0x6E6 JUMP JUMPDEST JUMPDEST DUP3 DUP3 DIV SWAP1 POP SWAP3 SWAP2 POP POP JUMP JUMPDEST PUSH0 DUP2 MLOAD SWAP1 POP SWAP2 SWAP1 POP JUMP JUMPDEST PUSH0 DUP2 SWAP1 POP SWAP3 SWAP2 POP POP JUMP JUMPDEST PUSH0 PUSH2 0x7DC DUP3 PUSH2 0x7BE JUMP JUMPDEST PUSH2 0x7E6 DUP2 DUP6 PUSH2 0x7C8 JUMP JUMPDEST SWAP4 POP PUSH2 0x7F6 DUP2 DUP6 PUSH1 0x20 DUP7 ADD PUSH2 0x639 JUMP JUMPDEST DUP1 DUP5 ADD SWAP2 POP POP SWAP3 SWAP2 POP POP JUMP JUMPDEST PUSH0 PUSH2 0x80D DUP3 DUP5 PUSH2 0x7D2 JUMP JUMPDEST SWAP2 POP DUP2 SWAP1 POP SWAP3 SWAP2 POP POP JUMP INVALID LOG2 PUSH5 0x6970667358 0x22 SLT KECCAK256 LOG2 0xF8 0x1E 0xE2 SMOD 0x23 MULMOD TIMESTAMP SWAP8 0x2F 0xE2 0xE3 0xB3 SWAP11 CREATE 0xB8 0x1E 0x22 DUP6 DUP1 0x4D 0xDD 0x25 0xE8 LT 0xD3 0x4E SDIV EXTCODEHASH SHL SHL DUP16 PUSH5 0x736F6C6343 STOP ADDMOD AND STOP CALLER "
		},
		"gasEstimates": {
			"creation": {
				"codeDepositCost": "425200",
				"executionCost": "infinite",
				"totalCost": "infinite"
			},
			"external": {
				"encode(string)": "infinite",
				"hashes(uint256)": "4870",
				"makeHash(string)": "infinite",
				"verify(string,uint256,bytes32,bytes32[])": "infinite"
			}
		},
		"methodIdentifiers": {
			"encode(string)": "6a11b2a8",
			"hashes(uint256)": "501895ae",
			"makeHash(string)": "52de70af",
			"verify(string,uint256,bytes32,bytes32[])": "2637cccf"
		}
	},
	"abi": [
		{
			"inputs": [],
			"stateMutability": "nonpayable",
			"type": "constructor"
		},
		{
			"inputs": [
				{
					"internalType": "string",
					"name": "input",
					"type": "string"
				}
			],
			"name": "encode",
			"outputs": [
				{
					"internalType": "bytes",
					"name": "",
					"type": "bytes"
				}
			],
			"stateMutability": "pure",
			"type": "function"
		},
		{
			"inputs": [
				{
					"internalType": "uint256",
					"name": "",
					"type": "uint256"
				}
			],
			"name": "hashes",
			"outputs": [
				{
					"internalType": "bytes32",
					"name": "",
					"type": "bytes32"
				}
			],
			"stateMutability": "view",
			"type": "function"
		},
		{
			"inputs": [
				{
					"internalType": "string",
					"name": "input",
					"type": "string"
				}
			],
			"name": "makeHash",
			"outputs": [
				{
					"internalType": "bytes32",
					"name": "",
					"type": "bytes32"
				}
			],
			"stateMutability": "pure",
			"type": "function"
		},
		{
			"inputs": [
				{
					"internalType": "string",
					"name": "transaction",
					"type": "string"
				},
				{
					"internalType": "uint256",
					"name": "index",
					"type": "uint256"
				},
				{
					"internalType": "bytes32",
					"name": "root",
					"type": "bytes32"
				},
				{
					"internalType": "bytes32[]",
					"name": "proof",
					"type": "bytes32[]"
				}
			],
			"name": "verify",
			"outputs": [
				{
					"internalType": "bool",
					"name": "",
					"type": "bool"
				}
			],
			"stateMutability": "pure",
			"type": "function"
		}
	]
}